{
  "_format": "hh-sol-artifact-1",
  "contractName": "Auction",
  "sourceName": "contracts/auctionComplex.sol",
  "abi": [
    {
      "inputs": [],
      "stateMutability": "nonpayable",
      "type": "constructor"
    },
    {
      "inputs": [],
      "name": "auctionState",
      "outputs": [
        {
          "internalType": "enum Auction.State",
          "name": "",
          "type": "uint8"
        }
      ],
      "stateMutability": "view",
      "type": "function"
    },
    {
      "inputs": [
        {
          "internalType": "address",
          "name": "",
          "type": "address"
        }
      ],
      "name": "bids",
      "outputs": [
        {
          "internalType": "uint256",
          "name": "",
          "type": "uint256"
        }
      ],
      "stateMutability": "view",
      "type": "function"
    },
    {
      "inputs": [],
      "name": "cancelAuction",
      "outputs": [],
      "stateMutability": "nonpayable",
      "type": "function"
    },
    {
      "inputs": [],
      "name": "endBlock",
      "outputs": [
        {
          "internalType": "uint256",
          "name": "",
          "type": "uint256"
        }
      ],
      "stateMutability": "view",
      "type": "function"
    },
    {
      "inputs": [],
      "name": "finalizeAuction",
      "outputs": [],
      "stateMutability": "nonpayable",
      "type": "function"
    },
    {
      "inputs": [],
      "name": "getHighestBid",
      "outputs": [
        {
          "internalType": "uint256",
          "name": "",
          "type": "uint256"
        }
      ],
      "stateMutability": "view",
      "type": "function"
    },
    {
      "inputs": [],
      "name": "getHighestBiddder",
      "outputs": [
        {
          "internalType": "address",
          "name": "",
          "type": "address"
        }
      ],
      "stateMutability": "view",
      "type": "function"
    },
    {
      "inputs": [],
      "name": "getHighestBindingBid",
      "outputs": [
        {
          "internalType": "uint256",
          "name": "",
          "type": "uint256"
        }
      ],
      "stateMutability": "view",
      "type": "function"
    },
    {
      "inputs": [],
      "name": "highestBidder",
      "outputs": [
        {
          "internalType": "address payable",
          "name": "",
          "type": "address"
        }
      ],
      "stateMutability": "view",
      "type": "function"
    },
    {
      "inputs": [],
      "name": "highestBindingBid",
      "outputs": [
        {
          "internalType": "uint256",
          "name": "",
          "type": "uint256"
        }
      ],
      "stateMutability": "view",
      "type": "function"
    },
    {
      "inputs": [],
      "name": "ipfsHash",
      "outputs": [
        {
          "internalType": "string",
          "name": "",
          "type": "string"
        }
      ],
      "stateMutability": "view",
      "type": "function"
    },
    {
      "inputs": [],
      "name": "owner",
      "outputs": [
        {
          "internalType": "address payable",
          "name": "",
          "type": "address"
        }
      ],
      "stateMutability": "view",
      "type": "function"
    },
    {
      "inputs": [],
      "name": "ownerFinalized",
      "outputs": [
        {
          "internalType": "bool",
          "name": "",
          "type": "bool"
        }
      ],
      "stateMutability": "view",
      "type": "function"
    },
    {
      "inputs": [],
      "name": "placeBid",
      "outputs": [
        {
          "internalType": "bool",
          "name": "",
          "type": "bool"
        }
      ],
      "stateMutability": "payable",
      "type": "function"
    },
    {
      "inputs": [],
      "name": "startBlock",
      "outputs": [
        {
          "internalType": "uint256",
          "name": "",
          "type": "uint256"
        }
      ],
      "stateMutability": "view",
      "type": "function"
    }
  ],
  "bytecode": "0x60806040526000600960006101000a81548160ff0219169083151502179055503480156200002c57600080fd5b50336000806101000a81548173ffffffffffffffffffffffffffffffffffffffff021916908373ffffffffffffffffffffffffffffffffffffffff1602179055506001600460006101000a81548160ff02191690836003811115620000ba577f4e487b7100000000000000000000000000000000000000000000000000000000600052602160045260246000fd5b0217905550436001819055506003600154620000d79190620001ca565b6002819055506040518060200160405280600081525060039080519060200190620001049291906200011a565b50670de0b6b3a7640000600881905550620002c5565b828054620001289062000231565b90600052602060002090601f0160209004810192826200014c576000855562000198565b82601f106200016757805160ff191683800117855562000198565b8280016001018555821562000198579182015b82811115620001975782518255916020019190600101906200017a565b5b509050620001a79190620001ab565b5090565b5b80821115620001c6576000816000905550600101620001ac565b5090565b6000620001d78262000227565b9150620001e48362000227565b9250827fffffffffffffffffffffffffffffffffffffffffffffffffffffffffffffffff038211156200021c576200021b62000267565b5b828201905092915050565b6000819050919050565b600060028204905060018216806200024a57607f821691505b6020821081141562000261576200026062000296565b5b50919050565b7f4e487b7100000000000000000000000000000000000000000000000000000000600052601160045260246000fd5b7f4e487b7100000000000000000000000000000000000000000000000000000000600052602260045260246000fd5b6111c880620002d56000396000f3fe6080604052600436106100e85760003560e01c80638da5cb5b1161008a578063d2d09d7811610059578063d2d09d78146102c4578063ecfc7ecc146102ef578063f5b56c561461030d578063f77282ab14610338576100e8565b80638da5cb5b1461022c5780638fa8b7901461025757806391f901571461026e578063c623674f14610299576100e8565b80634979440a116100c65780634979440a1461016e57806362ea82db146101995780637fb45099146101d65780638b7b097f14610201576100e8565b8063083c6323146100ed5780633046309f1461011857806348cd4cb114610143575b600080fd5b3480156100f957600080fd5b5061010261034f565b60405161010f9190610f24565b60405180910390f35b34801561012457600080fd5b5061012d610355565b60405161013a9190610f24565b60405180910390f35b34801561014f57600080fd5b5061015861035f565b6040516101659190610f24565b60405180910390f35b34801561017a57600080fd5b50610183610365565b6040516101909190610f24565b60405180910390f35b3480156101a557600080fd5b506101c060048036038101906101bb9190610de9565b6103ce565b6040516101cd9190610f24565b60405180910390f35b3480156101e257600080fd5b506101eb6103e6565b6040516101f89190610ee7565b60405180910390f35b34801561020d57600080fd5b506102166103f9565b6040516102239190610ecc565b60405180910390f35b34801561023857600080fd5b5061024161040c565b60405161024e9190610eb1565b60405180910390f35b34801561026357600080fd5b5061026c610430565b005b34801561027a57600080fd5b506102836104ea565b6040516102909190610eb1565b60405180910390f35b3480156102a557600080fd5b506102ae610510565b6040516102bb9190610f02565b60405180910390f35b3480156102d057600080fd5b506102d961059e565b6040516102e69190610e96565b60405180910390f35b6102f76105c8565b6040516103049190610ecc565b60405180910390f35b34801561031957600080fd5b50610322610922565b60405161032f9190610f24565b60405180910390f35b34801561034457600080fd5b5061034d610928565b005b60025481565b6000600554905090565b60015481565b600060076000600660009054906101000a900473ffffffffffffffffffffffffffffffffffffffff1673ffffffffffffffffffffffffffffffffffffffff1673ffffffffffffffffffffffffffffffffffffffff16815260200190815260200160002054905090565b60076020528060005260406000206000915090505481565b600460009054906101000a900460ff1681565b600960009054906101000a900460ff1681565b60008054906101000a900473ffffffffffffffffffffffffffffffffffffffff1681565b60025443111561043f57600080fd5b60008054906101000a900473ffffffffffffffffffffffffffffffffffffffff1673ffffffffffffffffffffffffffffffffffffffff163373ffffffffffffffffffffffffffffffffffffffff161461049757600080fd5b6003600460006101000a81548160ff021916908360038111156104e3577f4e487b7100000000000000000000000000000000000000000000000000000000600052602160045260246000fd5b0217905550565b600660009054906101000a900473ffffffffffffffffffffffffffffffffffffffff1681565b6003805461051d90611097565b80601f016020809104026020016040519081016040528092919081815260200182805461054990611097565b80156105965780601f1061056b57610100808354040283529160200191610596565b820191906000526020600020905b81548152906001019060200180831161057957829003601f168201915b505050505081565b6000600660009054906101000a900473ffffffffffffffffffffffffffffffffffffffff16905090565b60008060009054906101000a900473ffffffffffffffffffffffffffffffffffffffff1673ffffffffffffffffffffffffffffffffffffffff163373ffffffffffffffffffffffffffffffffffffffff16141561062457600080fd5b60015443101561063357600080fd5b60025443111561064257600080fd5b6001600381111561067c577f4e487b7100000000000000000000000000000000000000000000000000000000600052602160045260246000fd5b600460009054906101000a900460ff1660038111156106c4577f4e487b7100000000000000000000000000000000000000000000000000000000600052602160045260246000fd5b146106ce57600080fd5b600034600760003373ffffffffffffffffffffffffffffffffffffffff1673ffffffffffffffffffffffffffffffffffffffff1681526020019081526020016000205461071b9190610f5b565b9050600554811161072b57600080fd5b80600760003373ffffffffffffffffffffffffffffffffffffffff1673ffffffffffffffffffffffffffffffffffffffff1681526020019081526020016000208190555060076000600660009054906101000a900473ffffffffffffffffffffffffffffffffffffffff1673ffffffffffffffffffffffffffffffffffffffff1673ffffffffffffffffffffffffffffffffffffffff16815260200190815260200160002054811161085a5761084f600854826107e89190610f5b565b60076000600660009054906101000a900473ffffffffffffffffffffffffffffffffffffffff1673ffffffffffffffffffffffffffffffffffffffff1673ffffffffffffffffffffffffffffffffffffffff16815260200190815260200160002054610db9565b60058190555061091a565b6108d28160085460076000600660009054906101000a900473ffffffffffffffffffffffffffffffffffffffff1673ffffffffffffffffffffffffffffffffffffffff1673ffffffffffffffffffffffffffffffffffffffff168152602001908152602001600020546108cd9190610f5b565b610db9565b60058190555033600660006101000a81548173ffffffffffffffffffffffffffffffffffffffff021916908373ffffffffffffffffffffffffffffffffffffffff1602179055505b600191505090565b60055481565b600380811115610961577f4e487b7100000000000000000000000000000000000000000000000000000000600052602160045260246000fd5b600460009054906101000a900460ff1660038111156109a9577f4e487b7100000000000000000000000000000000000000000000000000000000600052602160045260246000fd5b14806109b6575060025443115b6109bf57600080fd5b60008054906101000a900473ffffffffffffffffffffffffffffffffffffffff1673ffffffffffffffffffffffffffffffffffffffff163373ffffffffffffffffffffffffffffffffffffffff161480610a5857506000600760003373ffffffffffffffffffffffffffffffffffffffff1673ffffffffffffffffffffffffffffffffffffffff16815260200190815260200160002054115b610a6157600080fd5b600080600380811115610a9d577f4e487b7100000000000000000000000000000000000000000000000000000000600052602160045260246000fd5b600460009054906101000a900460ff166003811115610ae5577f4e487b7100000000000000000000000000000000000000000000000000000000600052602160045260246000fd5b1415610b3557339150600760003373ffffffffffffffffffffffffffffffffffffffff1673ffffffffffffffffffffffffffffffffffffffff168152602001908152602001600020549050610d29565b60008054906101000a900473ffffffffffffffffffffffffffffffffffffffff1673ffffffffffffffffffffffffffffffffffffffff163373ffffffffffffffffffffffffffffffffffffffff16148015610ba3575060001515600960009054906101000a900460ff161515145b15610bf05760008054906101000a900473ffffffffffffffffffffffffffffffffffffffff16915060055490506001600960006101000a81548160ff021916908315150217905550610d28565b600660009054906101000a900473ffffffffffffffffffffffffffffffffffffffff1673ffffffffffffffffffffffffffffffffffffffff163373ffffffffffffffffffffffffffffffffffffffff161415610ce157600660009054906101000a900473ffffffffffffffffffffffffffffffffffffffff16915060055460076000600660009054906101000a900473ffffffffffffffffffffffffffffffffffffffff1673ffffffffffffffffffffffffffffffffffffffff1673ffffffffffffffffffffffffffffffffffffffff16815260200190815260200160002054610cda9190610fb1565b9050610d27565b339150600760003373ffffffffffffffffffffffffffffffffffffffff1673ffffffffffffffffffffffffffffffffffffffff1681526020019081526020016000205490505b5b5b6000600760008473ffffffffffffffffffffffffffffffffffffffff1673ffffffffffffffffffffffffffffffffffffffff168152602001908152602001600020819055508173ffffffffffffffffffffffffffffffffffffffff166108fc829081150290604051600060405180830381858888f19350505050158015610db4573d6000803e3d6000fd5b505050565b6000818311610dca57829050610dce565b8190505b92915050565b600081359050610de38161117b565b92915050565b600060208284031215610dfb57600080fd5b6000610e0984828501610dd4565b91505092915050565b610e1b81610ff7565b82525050565b610e2a81610fe5565b82525050565b610e3981611009565b82525050565b610e4881611052565b82525050565b6000610e5982610f3f565b610e638185610f4a565b9350610e73818560208601611064565b610e7c81611156565b840191505092915050565b610e9081611048565b82525050565b6000602082019050610eab6000830184610e21565b92915050565b6000602082019050610ec66000830184610e12565b92915050565b6000602082019050610ee16000830184610e30565b92915050565b6000602082019050610efc6000830184610e3f565b92915050565b60006020820190508181036000830152610f1c8184610e4e565b905092915050565b6000602082019050610f396000830184610e87565b92915050565b600081519050919050565b600082825260208201905092915050565b6000610f6682611048565b9150610f7183611048565b9250827fffffffffffffffffffffffffffffffffffffffffffffffffffffffffffffffff03821115610fa657610fa56110c9565b5b828201905092915050565b6000610fbc82611048565b9150610fc783611048565b925082821015610fda57610fd96110c9565b5b828203905092915050565b6000610ff082611028565b9050919050565b600061100282611028565b9050919050565b60008115159050919050565b600081905061102382611167565b919050565b600073ffffffffffffffffffffffffffffffffffffffff82169050919050565b6000819050919050565b600061105d82611015565b9050919050565b60005b83811015611082578082015181840152602081019050611067565b83811115611091576000848401525b50505050565b600060028204905060018216806110af57607f821691505b602082108114156110c3576110c2611127565b5b50919050565b7f4e487b7100000000000000000000000000000000000000000000000000000000600052601160045260246000fd5b7f4e487b7100000000000000000000000000000000000000000000000000000000600052602160045260246000fd5b7f4e487b7100000000000000000000000000000000000000000000000000000000600052602260045260246000fd5b6000601f19601f8301169050919050565b60048110611178576111776110f8565b5b50565b61118481610fe5565b811461118f57600080fd5b5056fea26469706673582212207e1c8562ee82bce8f0665c513ee78aa04c5b7715583b285c4f5915c1210fcb8c64736f6c63430008000033",
  "linkReferences": {},
  "deployedLinkReferences": {}
}