{
  "_format": "hh-sol-artifact-1",
  "contractName": "Auction",
  "sourceName": "contracts/auctionPeterson.sol",
  "abi": [
    {
      "inputs": [],
      "stateMutability": "nonpayable",
      "type": "constructor"
    },
    {
      "anonymous": false,
      "inputs": [
        {
          "indexed": false,
          "internalType": "uint256",
          "name": "_bidAmount",
          "type": "uint256"
        }
      ],
      "name": "bidEvent",
      "type": "event"
    },
    {
      "inputs": [
        {
          "internalType": "uint256",
          "name": "",
          "type": "uint256"
        }
      ],
      "name": "addresses",
      "outputs": [
        {
          "internalType": "address",
          "name": "",
          "type": "address"
        }
      ],
      "stateMutability": "view",
      "type": "function"
    },
    {
      "inputs": [
        {
          "internalType": "uint256",
          "name": "",
          "type": "uint256"
        }
      ],
      "name": "bidAmounts",
      "outputs": [
        {
          "internalType": "uint256",
          "name": "",
          "type": "uint256"
        }
      ],
      "stateMutability": "view",
      "type": "function"
    },
    {
      "inputs": [
        {
          "internalType": "address",
          "name": "",
          "type": "address"
        },
        {
          "internalType": "uint256",
          "name": "",
          "type": "uint256"
        }
      ],
      "name": "bids",
      "outputs": [
        {
          "internalType": "uint256",
          "name": "",
          "type": "uint256"
        }
      ],
      "stateMutability": "view",
      "type": "function"
    },
    {
      "inputs": [],
      "name": "endAuction",
      "outputs": [],
      "stateMutability": "nonpayable",
      "type": "function"
    },
    {
      "inputs": [],
      "name": "getAddresses",
      "outputs": [
        {
          "internalType": "address[]",
          "name": "",
          "type": "address[]"
        }
      ],
      "stateMutability": "view",
      "type": "function"
    },
    {
      "inputs": [],
      "name": "getBid",
      "outputs": [
        {
          "internalType": "uint256",
          "name": "",
          "type": "uint256"
        }
      ],
      "stateMutability": "view",
      "type": "function"
    },
    {
      "inputs": [],
      "name": "getBids",
      "outputs": [
        {
          "internalType": "uint256[]",
          "name": "",
          "type": "uint256[]"
        }
      ],
      "stateMutability": "view",
      "type": "function"
    },
    {
      "inputs": [],
      "name": "getWinner",
      "outputs": [
        {
          "internalType": "address",
          "name": "",
          "type": "address"
        }
      ],
      "stateMutability": "view",
      "type": "function"
    },
    {
      "inputs": [],
      "name": "getWinningBid",
      "outputs": [
        {
          "internalType": "uint256",
          "name": "",
          "type": "uint256"
        }
      ],
      "stateMutability": "view",
      "type": "function"
    },
    {
      "inputs": [
        {
          "internalType": "address",
          "name": "_pedersonCommitment",
          "type": "address"
        },
        {
          "internalType": "uint256",
          "name": "_r",
          "type": "uint256"
        },
        {
          "internalType": "uint256",
          "name": "_v",
          "type": "uint256"
        },
        {
          "internalType": "uint256",
          "name": "_hx",
          "type": "uint256"
        },
        {
          "internalType": "uint256",
          "name": "_hy",
          "type": "uint256"
        }
      ],
      "name": "openBid",
      "outputs": [],
      "stateMutability": "nonpayable",
      "type": "function"
    },
    {
      "inputs": [
        {
          "internalType": "address",
          "name": "",
          "type": "address"
        }
      ],
      "name": "opened_bids",
      "outputs": [
        {
          "internalType": "uint256",
          "name": "",
          "type": "uint256"
        }
      ],
      "stateMutability": "view",
      "type": "function"
    },
    {
      "inputs": [
        {
          "internalType": "uint256",
          "name": "x1",
          "type": "uint256"
        },
        {
          "internalType": "uint256",
          "name": "y1",
          "type": "uint256"
        }
      ],
      "name": "placeBid",
      "outputs": [],
      "stateMutability": "nonpayable",
      "type": "function"
    }
  ],
  "bytecode": "0x608060405234801561001057600080fd5b5033600160006101000a81548173ffffffffffffffffffffffffffffffffffffffff021916908373ffffffffffffffffffffffffffffffffffffffff1602179055506000600160146101000a81548160ff0219169083151502179055506000600381905550610de6806100846000396000f3fe608060405234801561001057600080fd5b50600436106100b45760003560e01c8063a754807a11610071578063a754807a1461018f578063b81c78ec146101bf578063bc37391a146101dd578063e6cd064b146101f9578063edf26d9b14610217578063fe67a54b14610247576100b4565b806301495c1c146100b9578063099a019d146100e957806357c90de5146101075780638e7ea5b21461012357806396d6b00814610141578063a39fac1214610171575b600080fd5b6100d360048036038101906100ce919061096d565b610251565b6040516100e09190610c35565b60405180910390f35b6100f1610279565b6040516100fe9190610c35565b60405180910390f35b610121600480360381019061011c9190610a72565b6102c0565b005b61012b6103de565b6040516101389190610bd6565b60405180910390f35b61015b60048036038101906101569190610944565b610408565b6040516101689190610c35565b60405180910390f35b610179610420565b6040516101869190610bf1565b60405180910390f35b6101a960048036038101906101a49190610a49565b6104ae565b6040516101b69190610c35565b60405180910390f35b6101c76104d2565b6040516101d49190610c13565b60405180910390f35b6101f760048036038101906101f291906109a9565b61052a565b005b610201610846565b60405161020e9190610c35565b60405180910390f35b610231600480360381019061022c9190610a49565b610850565b60405161023e9190610bd6565b60405180910390f35b61024f61088f565b005b6000602052816000526040600020816002811061026d57600080fd5b01600091509150505481565b6000600260003373ffffffffffffffffffffffffffffffffffffffff1673ffffffffffffffffffffffffffffffffffffffff16815260200190815260200160002054905090565b60001515600160149054906101000a900460ff161515146102e057600080fd5b816000803373ffffffffffffffffffffffffffffffffffffffff1673ffffffffffffffffffffffffffffffffffffffff168152602001908152602001600020600060028110610358577f4e487b7100000000000000000000000000000000000000000000000000000000600052603260045260246000fd5b0181905550806000803373ffffffffffffffffffffffffffffffffffffffff1673ffffffffffffffffffffffffffffffffffffffff1681526020019081526020016000206001600281106103d5577f4e487b7100000000000000000000000000000000000000000000000000000000600052603260045260246000fd5b01819055505050565b6000600460009054906101000a900473ffffffffffffffffffffffffffffffffffffffff16905090565b60026020528060005260406000206000915090505481565b606060058054806020026020016040519081016040528092919081815260200182805480156104a457602002820191906000526020600020905b8160009054906101000a900473ffffffffffffffffffffffffffffffffffffffff1673ffffffffffffffffffffffffffffffffffffffff168152602001906001019080831161045a575b5050505050905090565b600681815481106104be57600080fd5b906000526020600020016000915090505481565b6060600680548060200260200160405190810160405280929190818152602001828054801561052057602002820191906000526020600020905b81548152602001906001019080831161050c575b5050505050905090565b60011515600160149054906101000a900460ff1615151461054a57600080fd5b60008060003373ffffffffffffffffffffffffffffffffffffffff1673ffffffffffffffffffffffffffffffffffffffff1681526020019081526020016000206000600281106105c3577f4e487b7100000000000000000000000000000000000000000000000000000000600052603260045260246000fd5b0154905060008060003373ffffffffffffffffffffffffffffffffffffffff1673ffffffffffffffffffffffffffffffffffffffff168152602001908152602001600020600160028110610640577f4e487b7100000000000000000000000000000000000000000000000000000000600052603260045260246000fd5b0154905060008773ffffffffffffffffffffffffffffffffffffffff1663dbc1c43c888886868a8a6040518763ffffffff1660e01b815260040161068996959493929190610c50565b60206040518083038186803b1580156106a157600080fd5b505afa1580156106b5573d6000803e3d6000fd5b505050506040513d601f19601f820116820180604052508101906106d99190610a20565b9050801561083c5785600260003373ffffffffffffffffffffffffffffffffffffffff1673ffffffffffffffffffffffffffffffffffffffff168152602001908152602001600020819055506005339080600181540180825580915050600190039060005260206000200160009091909190916101000a81548173ffffffffffffffffffffffffffffffffffffffff021916908373ffffffffffffffffffffffffffffffffffffffff1602179055506006869080600181540180825580915050600190039060005260206000200160009091909190915055600354861115610804578560038190555033600460006101000a81548173ffffffffffffffffffffffffffffffffffffffff021916908373ffffffffffffffffffffffffffffffffffffffff1602179055505b7f9ee19366a21f1b4bd881b631cac7e3fd0385339e6cf2dabd03dc301940e4fbdc866040516108339190610c35565b60405180910390a15b5050505050505050565b6000600354905090565b6005818154811061086057600080fd5b906000526020600020016000915054906101000a900473ffffffffffffffffffffffffffffffffffffffff1681565b600160009054906101000a900473ffffffffffffffffffffffffffffffffffffffff1673ffffffffffffffffffffffffffffffffffffffff163373ffffffffffffffffffffffffffffffffffffffff16146108e957600080fd5b60018060146101000a81548160ff021916908315150217905550565b60008135905061091481610d6b565b92915050565b60008151905061092981610d82565b92915050565b60008135905061093e81610d99565b92915050565b60006020828403121561095657600080fd5b600061096484828501610905565b91505092915050565b6000806040838503121561098057600080fd5b600061098e85828601610905565b925050602061099f8582860161092f565b9150509250929050565b600080600080600060a086880312156109c157600080fd5b60006109cf88828901610905565b95505060206109e08882890161092f565b94505060406109f18882890161092f565b9350506060610a028882890161092f565b9250506080610a138882890161092f565b9150509295509295909350565b600060208284031215610a3257600080fd5b6000610a408482850161091a565b91505092915050565b600060208284031215610a5b57600080fd5b6000610a698482850161092f565b91505092915050565b60008060408385031215610a8557600080fd5b6000610a938582860161092f565b9250506020610aa48582860161092f565b9150509250929050565b6000610aba8383610ade565b60208301905092915050565b6000610ad28383610bb8565b60208301905092915050565b610ae781610d23565b82525050565b610af681610d23565b82525050565b6000610b0782610cd1565b610b118185610d01565b9350610b1c83610cb1565b8060005b83811015610b4d578151610b348882610aae565b9750610b3f83610ce7565b925050600181019050610b20565b5085935050505092915050565b6000610b6582610cdc565b610b6f8185610d12565b9350610b7a83610cc1565b8060005b83811015610bab578151610b928882610ac6565b9750610b9d83610cf4565b925050600181019050610b7e565b5085935050505092915050565b610bc181610d61565b82525050565b610bd081610d61565b82525050565b6000602082019050610beb6000830184610aed565b92915050565b60006020820190508181036000830152610c0b8184610afc565b905092915050565b60006020820190508181036000830152610c2d8184610b5a565b905092915050565b6000602082019050610c4a6000830184610bc7565b92915050565b600060c082019050610c656000830189610bc7565b610c726020830188610bc7565b610c7f6040830187610bc7565b610c8c6060830186610bc7565b610c996080830185610bc7565b610ca660a0830184610bc7565b979650505050505050565b6000819050602082019050919050565b6000819050602082019050919050565b600081519050919050565b600081519050919050565b6000602082019050919050565b6000602082019050919050565b600082825260208201905092915050565b600082825260208201905092915050565b6000610d2e82610d41565b9050919050565b60008115159050919050565b600073ffffffffffffffffffffffffffffffffffffffff82169050919050565b6000819050919050565b610d7481610d23565b8114610d7f57600080fd5b50565b610d8b81610d35565b8114610d9657600080fd5b50565b610da281610d61565b8114610dad57600080fd5b5056fea26469706673582212209d2bc56bcda8da28c6133996688d948ac353b5e105c3f268f592ab73ed8ec20964736f6c63430008000033",
  "linkReferences": {},
  "deployedLinkReferences": {}
}