{
  "_format": "hh-sol-artifact-1",
  "contractName": "Auction",
  "sourceName": "contracts/auctionSimple.sol",
  "abi": [
    {
      "inputs": [],
      "stateMutability": "nonpayable",
      "type": "constructor"
    },
    {
      "anonymous": false,
      "inputs": [
        {
          "indexed": false,
          "internalType": "uint256",
          "name": "_bidAmount",
          "type": "uint256"
        }
      ],
      "name": "bidEvent",
      "type": "event"
    },
    {
      "inputs": [
        {
          "internalType": "uint256",
          "name": "",
          "type": "uint256"
        }
      ],
      "name": "addresses",
      "outputs": [
        {
          "internalType": "address",
          "name": "",
          "type": "address"
        }
      ],
      "stateMutability": "view",
      "type": "function"
    },
    {
      "inputs": [],
      "name": "alreadyBidded",
      "outputs": [
        {
          "internalType": "bool",
          "name": "",
          "type": "bool"
        }
      ],
      "stateMutability": "view",
      "type": "function"
    },
    {
      "inputs": [
        {
          "internalType": "uint256",
          "name": "",
          "type": "uint256"
        }
      ],
      "name": "bidAmounts",
      "outputs": [
        {
          "internalType": "uint256",
          "name": "",
          "type": "uint256"
        }
      ],
      "stateMutability": "view",
      "type": "function"
    },
    {
      "inputs": [
        {
          "internalType": "address",
          "name": "",
          "type": "address"
        }
      ],
      "name": "bids",
      "outputs": [
        {
          "internalType": "uint256",
          "name": "",
          "type": "uint256"
        }
      ],
      "stateMutability": "view",
      "type": "function"
    },
    {
      "inputs": [],
      "name": "endAuction",
      "outputs": [],
      "stateMutability": "nonpayable",
      "type": "function"
    },
    {
      "inputs": [
        {
          "internalType": "address",
          "name": "element",
          "type": "address"
        },
        {
          "internalType": "address[]",
          "name": "arr",
          "type": "address[]"
        }
      ],
      "name": "findElementInArray",
      "outputs": [
        {
          "internalType": "uint256",
          "name": "",
          "type": "uint256"
        }
      ],
      "stateMutability": "nonpayable",
      "type": "function"
    },
    {
      "inputs": [],
      "name": "getAddresses",
      "outputs": [
        {
          "internalType": "address[]",
          "name": "",
          "type": "address[]"
        }
      ],
      "stateMutability": "view",
      "type": "function"
    },
    {
      "inputs": [],
      "name": "getBids",
      "outputs": [
        {
          "internalType": "uint256[]",
          "name": "",
          "type": "uint256[]"
        }
      ],
      "stateMutability": "view",
      "type": "function"
    },
    {
      "inputs": [],
      "name": "getHighestBid",
      "outputs": [
        {
          "internalType": "uint256",
          "name": "",
          "type": "uint256"
        }
      ],
      "stateMutability": "view",
      "type": "function"
    },
    {
      "inputs": [
        {
          "internalType": "uint256",
          "name": "_bidAmt",
          "type": "uint256"
        }
      ],
      "name": "placeBid",
      "outputs": [],
      "stateMutability": "nonpayable",
      "type": "function"
    }
  ],
  "bytecode": "0x608060405234801561001057600080fd5b506040518060400160405280600181526020016000151581525060046000820151816000015560208201518160010160006101000a81548160ff02191690831515021790555090505033600260006101000a81548173ffffffffffffffffffffffffffffffffffffffff021916908373ffffffffffffffffffffffffffffffffffffffff160217905550600060036000600260009054906101000a900473ffffffffffffffffffffffffffffffffffffffff1673ffffffffffffffffffffffffffffffffffffffff1673ffffffffffffffffffffffffffffffffffffffff1681526020019081526020016000208190555033600660006101000a81548173ffffffffffffffffffffffffffffffffffffffff021916908373ffffffffffffffffffffffffffffffffffffffff160217905550610d69806101516000396000f3fe608060405234801561001057600080fd5b506004361061009e5760003560e01c8063a39fac1211610066578063a39fac121461015b578063a754807a14610179578063b81c78ec146101a9578063edf26d9b146101c7578063fe67a54b146101f75761009e565b806343071614146100a35780634979440a146100c157806362ea82db146100df5780637c01c3951461010f5780639979ef451461013f575b600080fd5b6100ab610201565b6040516100b89190610ae0565b60405180910390f35b6100c961025b565b6040516100d69190610b1b565b60405180910390f35b6100f960048036038101906100f49190610864565b6102c4565b6040516101069190610b1b565b60405180910390f35b6101296004803603810190610124919061088d565b6102dc565b6040516101369190610b1b565b60405180910390f35b610159600480360381019061015491906108e1565b610389565b005b6101636105e1565b6040516101709190610a9c565b60405180910390f35b610193600480360381019061018e91906108e1565b61066f565b6040516101a09190610b1b565b60405180910390f35b6101b1610693565b6040516101be9190610abe565b60405180910390f35b6101e160048036038101906101dc91906108e1565b6106eb565b6040516101ee9190610a81565b60405180910390f35b6101ff61072a565b005b600080600360003373ffffffffffffffffffffffffffffffffffffffff1673ffffffffffffffffffffffffffffffffffffffff1681526020019081526020016000205411156102535760019050610258565b600090505b90565b600060036000600260009054906101000a900473ffffffffffffffffffffffffffffffffffffffff1673ffffffffffffffffffffffffffffffffffffffff1673ffffffffffffffffffffffffffffffffffffffff16815260200190815260200160002054905090565b60036020528060005260406000206000915090505481565b600080600090505b825181101561037d57828181518110610326577f4e487b7100000000000000000000000000000000000000000000000000000000600052603260045260246000fd5b602002602001015173ffffffffffffffffffffffffffffffffffffffff168473ffffffffffffffffffffffffffffffffffffffff16141561036a5780915050610383565b808061037590610c5e565b9150506102e4565b50600090505b92915050565b60001515600460010160009054906101000a900460ff161515146103e2576040517f08c379a00000000000000000000000000000000000000000000000000000000081526004016103d990610afb565b60405180910390fd5b6103ea610201565b1561051a5780600360003373ffffffffffffffffffffffffffffffffffffffff1673ffffffffffffffffffffffffffffffffffffffff1681526020019081526020016000205410156105155760006104c83360008054806020026020016040519081016040528092919081815260200182805480156104be57602002820191906000526020600020905b8160009054906101000a900473ffffffffffffffffffffffffffffffffffffffff1673ffffffffffffffffffffffffffffffffffffffff1681526020019060010190808311610474575b50505050506102dc565b90508160018281548110610505577f4e487b7100000000000000000000000000000000000000000000000000000000600052603260045260246000fd5b9060005260206000200181905550505b6105a7565b6000339080600181540180825580915050600190039060005260206000200160009091909190916101000a81548173ffffffffffffffffffffffffffffffffffffffff021916908373ffffffffffffffffffffffffffffffffffffffff16021790555060018190806001815401808255809150506001900390600052602060002001600090919091909150555b7f9ee19366a21f1b4bd881b631cac7e3fd0385339e6cf2dabd03dc301940e4fbdc816040516105d69190610b1b565b60405180910390a150565b6060600080548060200260200160405190810160405280929190818152602001828054801561066557602002820191906000526020600020905b8160009054906101000a900473ffffffffffffffffffffffffffffffffffffffff1673ffffffffffffffffffffffffffffffffffffffff168152602001906001019080831161061b575b5050505050905090565b6001818154811061067f57600080fd5b906000526020600020016000915090505481565b606060018054806020026020016040519081016040528092919081815260200182805480156106e157602002820191906000526020600020905b8154815260200190600101908083116106cd575b5050505050905090565b600081815481106106fb57600080fd5b906000526020600020016000915054906101000a900473ffffffffffffffffffffffffffffffffffffffff1681565b600660009054906101000a900473ffffffffffffffffffffffffffffffffffffffff1673ffffffffffffffffffffffffffffffffffffffff163373ffffffffffffffffffffffffffffffffffffffff161461078457600080fd5b6001600460010160006101000a81548160ff021916908315150217905550565b60006107b76107b284610b67565b610b36565b905080838252602082019050828560208602820111156107d657600080fd5b60005b8581101561080657816107ec8882610810565b8452602084019350602083019250506001810190506107d9565b5050509392505050565b60008135905061081f81610d05565b92915050565b600082601f83011261083657600080fd5b81356108468482602086016107a4565b91505092915050565b60008135905061085e81610d1c565b92915050565b60006020828403121561087657600080fd5b600061088484828501610810565b91505092915050565b600080604083850312156108a057600080fd5b60006108ae85828601610810565b925050602083013567ffffffffffffffff8111156108cb57600080fd5b6108d785828601610825565b9150509250929050565b6000602082840312156108f357600080fd5b60006109018482850161084f565b91505092915050565b6000610916838361093a565b60208301905092915050565b600061092e8383610a63565b60208301905092915050565b61094381610c16565b82525050565b61095281610c16565b82525050565b600061096382610bb3565b61096d8185610be3565b935061097883610b93565b8060005b838110156109a9578151610990888261090a565b975061099b83610bc9565b92505060018101905061097c565b5085935050505092915050565b60006109c182610bbe565b6109cb8185610bf4565b93506109d683610ba3565b8060005b83811015610a075781516109ee8882610922565b97506109f983610bd6565b9250506001810190506109da565b5085935050505092915050565b610a1d81610c28565b82525050565b6000610a30601583610c05565b91507f5468652061756374696f6e2068617320656e64656400000000000000000000006000830152602082019050919050565b610a6c81610c54565b82525050565b610a7b81610c54565b82525050565b6000602082019050610a966000830184610949565b92915050565b60006020820190508181036000830152610ab68184610958565b905092915050565b60006020820190508181036000830152610ad881846109b6565b905092915050565b6000602082019050610af56000830184610a14565b92915050565b60006020820190508181036000830152610b1481610a23565b9050919050565b6000602082019050610b306000830184610a72565b92915050565b6000604051905081810181811067ffffffffffffffff82111715610b5d57610b5c610cd6565b5b8060405250919050565b600067ffffffffffffffff821115610b8257610b81610cd6565b5b602082029050602081019050919050565b6000819050602082019050919050565b6000819050602082019050919050565b600081519050919050565b600081519050919050565b6000602082019050919050565b6000602082019050919050565b600082825260208201905092915050565b600082825260208201905092915050565b600082825260208201905092915050565b6000610c2182610c34565b9050919050565b60008115159050919050565b600073ffffffffffffffffffffffffffffffffffffffff82169050919050565b6000819050919050565b6000610c6982610c54565b91507fffffffffffffffffffffffffffffffffffffffffffffffffffffffffffffffff821415610c9c57610c9b610ca7565b5b600182019050919050565b7f4e487b7100000000000000000000000000000000000000000000000000000000600052601160045260246000fd5b7f4e487b7100000000000000000000000000000000000000000000000000000000600052604160045260246000fd5b610d0e81610c16565b8114610d1957600080fd5b50565b610d2581610c54565b8114610d3057600080fd5b5056fea264697066735822122036648cb0cf5f0534ff91721ae8e7cda03492a6074f3a38840af0cb700e0afcda64736f6c63430008000033",
  "linkReferences": {},
  "deployedLinkReferences": {}
}