{
  "_format": "hh-sol-artifact-1",
  "contractName": "Auction",
  "sourceName": "contracts/auction.sol",
  "abi": [
    {
      "inputs": [],
      "stateMutability": "nonpayable",
      "type": "constructor"
    },
    {
      "inputs": [],
      "name": "auctionState",
      "outputs": [
        {
          "internalType": "enum Auction.State",
          "name": "",
          "type": "uint8"
        }
      ],
      "stateMutability": "view",
      "type": "function"
    },
    {
      "inputs": [
        {
          "internalType": "address",
          "name": "",
          "type": "address"
        }
      ],
      "name": "bids",
      "outputs": [
        {
          "internalType": "uint256",
          "name": "",
          "type": "uint256"
        }
      ],
      "stateMutability": "view",
      "type": "function"
    },
    {
      "inputs": [],
      "name": "cancelAuction",
      "outputs": [],
      "stateMutability": "nonpayable",
      "type": "function"
    },
    {
      "inputs": [],
      "name": "endBlock",
      "outputs": [
        {
          "internalType": "uint256",
          "name": "",
          "type": "uint256"
        }
      ],
      "stateMutability": "view",
      "type": "function"
    },
    {
      "inputs": [],
      "name": "getHighestBidder",
      "outputs": [
        {
          "internalType": "uint256",
          "name": "",
          "type": "uint256"
        }
      ],
      "stateMutability": "nonpayable",
      "type": "function"
    },
    {
      "inputs": [],
      "name": "highestBidder",
      "outputs": [
        {
          "internalType": "address",
          "name": "",
          "type": "address"
        }
      ],
      "stateMutability": "view",
      "type": "function"
    },
    {
      "inputs": [],
      "name": "highestBindingBid",
      "outputs": [
        {
          "internalType": "uint256",
          "name": "",
          "type": "uint256"
        }
      ],
      "stateMutability": "view",
      "type": "function"
    },
    {
      "inputs": [],
      "name": "ipfsHash",
      "outputs": [
        {
          "internalType": "string",
          "name": "",
          "type": "string"
        }
      ],
      "stateMutability": "view",
      "type": "function"
    },
    {
      "inputs": [],
      "name": "owner",
      "outputs": [
        {
          "internalType": "address",
          "name": "",
          "type": "address"
        }
      ],
      "stateMutability": "view",
      "type": "function"
    },
    {
      "inputs": [
        {
          "internalType": "uint256",
          "name": "currentBid",
          "type": "uint256"
        }
      ],
      "name": "placeBid",
      "outputs": [
        {
          "internalType": "bool",
          "name": "",
          "type": "bool"
        }
      ],
      "stateMutability": "nonpayable",
      "type": "function"
    },
    {
      "inputs": [],
      "name": "startBlock",
      "outputs": [
        {
          "internalType": "uint256",
          "name": "",
          "type": "uint256"
        }
      ],
      "stateMutability": "view",
      "type": "function"
    }
  ],
  "bytecode": "0x60806040523480156200001157600080fd5b50600060068190555033600460016101000a81548173ffffffffffffffffffffffffffffffffffffffff021916908373ffffffffffffffffffffffffffffffffffffffff16021790555033600860006101000a81548173ffffffffffffffffffffffffffffffffffffffff021916908373ffffffffffffffffffffffffffffffffffffffff1602179055506001600460006101000a81548160ff02191690836003811115620000e9577f4e487b7100000000000000000000000000000000000000000000000000000000600052602160045260246000fd5b021790555043600181905550600a600154620001069190620001f2565b60028190555060405180602001604052806000815250600390805190602001906200013392919062000142565b506001600581905550620002ed565b828054620001509062000259565b90600052602060002090601f016020900481019282620001745760008555620001c0565b82601f106200018f57805160ff1916838001178555620001c0565b82800160010185558215620001c0579182015b82811115620001bf578251825591602001919060010190620001a2565b5b509050620001cf9190620001d3565b5090565b5b80821115620001ee576000816000905550600101620001d4565b5090565b6000620001ff826200024f565b91506200020c836200024f565b9250827fffffffffffffffffffffffffffffffffffffffffffffffffffffffffffffffff038211156200024457620002436200028f565b5b828201905092915050565b6000819050919050565b600060028204905060018216806200027257607f821691505b60208210811415620002895762000288620002be565b5b50919050565b7f4e487b7100000000000000000000000000000000000000000000000000000000600052601160045260246000fd5b7f4e487b7100000000000000000000000000000000000000000000000000000000600052602260045260246000fd5b610af480620002fd6000396000f3fe608060405234801561001057600080fd5b50600436106100a85760003560e01c80638da5cb5b116100715780638da5cb5b146101555780638fa8b7901461017357806391f901571461017d5780639979ef451461019b578063c623674f146101cb578063f5b56c56146101e9576100a8565b80623495a4146100ad578063083c6323146100cb57806348cd4cb1146100e957806362ea82db146101075780637fb4509914610137575b600080fd5b6100b5610207565b6040516100c2919061087f565b60405180910390f35b6100d3610270565b6040516100e0919061087f565b60405180910390f35b6100f1610276565b6040516100fe919061087f565b60405180910390f35b610121600480360381019061011c9190610745565b61027c565b60405161012e919061087f565b60405180910390f35b61013f610294565b60405161014c9190610842565b60405180910390f35b61015d6102a7565b60405161016a919061080c565b60405180910390f35b61017b6102cb565b005b610185610387565b604051610192919061080c565b60405180910390f35b6101b560048036038101906101b0919061076e565b6103ad565b6040516101c29190610827565b60405180910390f35b6101d361066c565b6040516101e0919061085d565b60405180910390f35b6101f16106fa565b6040516101fe919061087f565b60405180910390f35b600060076000600460019054906101000a900473ffffffffffffffffffffffffffffffffffffffff1673ffffffffffffffffffffffffffffffffffffffff1673ffffffffffffffffffffffffffffffffffffffff16815260200190815260200160002054905090565b60025481565b60015481565b60076020528060005260406000206000915090505481565b600460009054906101000a900460ff1681565b60008054906101000a900473ffffffffffffffffffffffffffffffffffffffff1681565b6002544311156102da57600080fd5b600860009054906101000a900473ffffffffffffffffffffffffffffffffffffffff1673ffffffffffffffffffffffffffffffffffffffff163373ffffffffffffffffffffffffffffffffffffffff161461033457600080fd5b6003600460006101000a81548160ff02191690836003811115610380577f4e487b7100000000000000000000000000000000000000000000000000000000600052602160045260246000fd5b0217905550565b600460019054906101000a900473ffffffffffffffffffffffffffffffffffffffff1681565b6000600160038111156103e9577f4e487b7100000000000000000000000000000000000000000000000000000000600052602160045260246000fd5b600460009054906101000a900460ff166003811115610431577f4e487b7100000000000000000000000000000000000000000000000000000000600052602160045260246000fd5b1461043b57600080fd5b60015443101561044a57600080fd5b60025443111561045957600080fd5b6006546005548361046a91906108b6565b1161047457600080fd5b81600760003373ffffffffffffffffffffffffffffffffffffffff1673ffffffffffffffffffffffffffffffffffffffff1681526020019081526020016000208190555060076000600460019054906101000a900473ffffffffffffffffffffffffffffffffffffffff1673ffffffffffffffffffffffffffffffffffffffff1673ffffffffffffffffffffffffffffffffffffffff1681526020019081526020016000205482116105a3576105986005548361053191906108b6565b60076000600460019054906101000a900473ffffffffffffffffffffffffffffffffffffffff1673ffffffffffffffffffffffffffffffffffffffff1673ffffffffffffffffffffffffffffffffffffffff16815260200190815260200160002054610700565b600681905550610663565b61061b8260055460076000600460019054906101000a900473ffffffffffffffffffffffffffffffffffffffff1673ffffffffffffffffffffffffffffffffffffffff1673ffffffffffffffffffffffffffffffffffffffff1681526020019081526020016000205461061691906108b6565b610700565b60068190555033600460016101000a81548173ffffffffffffffffffffffffffffffffffffffff021916908373ffffffffffffffffffffffffffffffffffffffff1602179055505b60019050919050565b60038054610679906109ac565b80601f01602080910402602001604051908101604052809291908181526020018280546106a5906109ac565b80156106f25780601f106106c7576101008083540402835291602001916106f2565b820191906000526020600020905b8154815290600101906020018083116106d557829003601f168201915b505050505081565b60065481565b600081831161071157829050610715565b8190505b92915050565b60008135905061072a81610a90565b92915050565b60008135905061073f81610aa7565b92915050565b60006020828403121561075757600080fd5b60006107658482850161071b565b91505092915050565b60006020828403121561078057600080fd5b600061078e84828501610730565b91505092915050565b6107a08161090c565b82525050565b6107af8161091e565b82525050565b6107be81610967565b82525050565b60006107cf8261089a565b6107d981856108a5565b93506107e9818560208601610979565b6107f281610a6b565b840191505092915050565b6108068161095d565b82525050565b60006020820190506108216000830184610797565b92915050565b600060208201905061083c60008301846107a6565b92915050565b600060208201905061085760008301846107b5565b92915050565b6000602082019050818103600083015261087781846107c4565b905092915050565b600060208201905061089460008301846107fd565b92915050565b600081519050919050565b600082825260208201905092915050565b60006108c18261095d565b91506108cc8361095d565b9250827fffffffffffffffffffffffffffffffffffffffffffffffffffffffffffffffff03821115610901576109006109de565b5b828201905092915050565b60006109178261093d565b9050919050565b60008115159050919050565b600081905061093882610a7c565b919050565b600073ffffffffffffffffffffffffffffffffffffffff82169050919050565b6000819050919050565b60006109728261092a565b9050919050565b60005b8381101561099757808201518184015260208101905061097c565b838111156109a6576000848401525b50505050565b600060028204905060018216806109c457607f821691505b602082108114156109d8576109d7610a3c565b5b50919050565b7f4e487b7100000000000000000000000000000000000000000000000000000000600052601160045260246000fd5b7f4e487b7100000000000000000000000000000000000000000000000000000000600052602160045260246000fd5b7f4e487b7100000000000000000000000000000000000000000000000000000000600052602260045260246000fd5b6000601f19601f8301169050919050565b60048110610a8d57610a8c610a0d565b5b50565b610a998161090c565b8114610aa457600080fd5b50565b610ab08161095d565b8114610abb57600080fd5b5056fea264697066735822122099ea65eb468f3fc4c70cfe009b0a42b9b8f69967761e9e30a40672509e00b6e764736f6c63430008000033",
  "linkReferences": {},
  "deployedLinkReferences": {}
}